{
  "address": "0xe7f1725E7734CE288F8367e1Bb143E90bb3F0512",
  "abi": [
    {
      "inputs": [
        {
          "internalType": "uint256",
          "name": "_enterFee",
          "type": "uint256"
        },
        {
          "internalType": "uint256",
          "name": "_spinFee",
          "type": "uint256"
        }
      ],
      "stateMutability": "payable",
      "type": "constructor"
    },
    {
      "inputs": [],
      "name": "Wheel__NotEnoughToEnter",
      "type": "error"
    },
    {
      "inputs": [],
      "name": "Wheel__NotOpen",
      "type": "error"
    },
    {
      "inputs": [],
      "name": "Wheel__NothingToClaim",
      "type": "error"
    },
    {
      "inputs": [],
      "name": "Wheel__PlayerNoBalance",
      "type": "error"
    },
    {
      "inputs": [],
      "name": "Wheel__TransferFailed",
      "type": "error"
    },
    {
      "anonymous": false,
      "inputs": [
        {
          "indexed": true,
          "internalType": "address",
          "name": "previousOwner",
          "type": "address"
        },
        {
          "indexed": true,
          "internalType": "address",
          "name": "newOwner",
          "type": "address"
        }
      ],
      "name": "OwnershipTransferred",
      "type": "event"
    },
    {
      "anonymous": false,
      "inputs": [],
      "name": "WheelClosed",
      "type": "event"
    },
    {
      "anonymous": false,
      "inputs": [
        {
          "indexed": true,
          "internalType": "address",
          "name": "player",
          "type": "address"
        }
      ],
      "name": "WheelEnter",
      "type": "event"
    },
    {
      "anonymous": false,
      "inputs": [
        {
          "indexed": true,
          "internalType": "address",
          "name": "owner",
          "type": "address"
        },
        {
          "indexed": false,
          "internalType": "uint256",
          "name": "amount",
          "type": "uint256"
        }
      ],
      "name": "WheelFilled",
      "type": "event"
    },
    {
      "anonymous": false,
      "inputs": [],
      "name": "WheelIsOpen",
      "type": "event"
    },
    {
      "anonymous": false,
      "inputs": [
        {
          "indexed": true,
          "internalType": "address",
          "name": "player",
          "type": "address"
        },
        {
          "indexed": false,
          "internalType": "uint256",
          "name": "prize",
          "type": "uint256"
        }
      ],
      "name": "WheelPrizeClaimed",
      "type": "event"
    },
    {
      "anonymous": false,
      "inputs": [
        {
          "indexed": true,
          "internalType": "address",
          "name": "player",
          "type": "address"
        },
        {
          "indexed": true,
          "internalType": "enum Wheel.WheelPrize",
          "name": "prize",
          "type": "uint8"
        }
      ],
      "name": "WheelPrizeSent",
      "type": "event"
    },
    {
      "anonymous": false,
      "inputs": [
        {
          "indexed": true,
          "internalType": "uint256",
          "name": "requestId",
          "type": "uint256"
        }
      ],
      "name": "WheelRequestedNumber",
      "type": "event"
    },
    {
      "anonymous": false,
      "inputs": [],
      "name": "WheelZeroBalance",
      "type": "event"
    },
    {
      "inputs": [
        {
          "internalType": "address",
          "name": "",
          "type": "address"
        }
      ],
      "name": "addressToPlayer",
      "outputs": [
        {
          "internalType": "uint256",
          "name": "balance",
          "type": "uint256"
        },
        {
          "internalType": "enum Wheel.PlayerState",
          "name": "state",
          "type": "uint8"
        },
        {
          "internalType": "enum Wheel.WheelPrize",
          "name": "lastPrize",
          "type": "uint8"
        }
      ],
      "stateMutability": "view",
      "type": "function"
    },
    {
      "inputs": [
        {
          "internalType": "address",
          "name": "",
          "type": "address"
        }
      ],
      "name": "addressToPrize",
      "outputs": [
        {
          "internalType": "uint256",
          "name": "",
          "type": "uint256"
        }
      ],
      "stateMutability": "view",
      "type": "function"
    },
    {
      "inputs": [
        {
          "internalType": "address payable",
          "name": "_player",
          "type": "address"
        }
      ],
      "name": "claim",
      "outputs": [],
      "stateMutability": "nonpayable",
      "type": "function"
    },
    {
      "inputs": [],
      "name": "close",
      "outputs": [],
      "stateMutability": "nonpayable",
      "type": "function"
    },
    {
      "inputs": [],
      "name": "enter",
      "outputs": [],
      "stateMutability": "payable",
      "type": "function"
    },
    {
      "inputs": [],
      "name": "enterFee",
      "outputs": [
        {
          "internalType": "uint256",
          "name": "",
          "type": "uint256"
        }
      ],
      "stateMutability": "view",
      "type": "function"
    },
    {
      "inputs": [],
      "name": "getBalance",
      "outputs": [
        {
          "internalType": "uint256",
          "name": "",
          "type": "uint256"
        }
      ],
      "stateMutability": "view",
      "type": "function"
    },
    {
      "inputs": [],
      "name": "minBalance",
      "outputs": [
        {
          "internalType": "uint256",
          "name": "",
          "type": "uint256"
        }
      ],
      "stateMutability": "view",
      "type": "function"
    },
    {
      "inputs": [],
      "name": "owner",
      "outputs": [
        {
          "internalType": "address",
          "name": "",
          "type": "address"
        }
      ],
      "stateMutability": "view",
      "type": "function"
    },
    {
      "inputs": [],
      "name": "playersCount",
      "outputs": [
        {
          "internalType": "uint256",
          "name": "",
          "type": "uint256"
        }
      ],
      "stateMutability": "view",
      "type": "function"
    },
    {
      "inputs": [
        {
          "internalType": "uint256",
          "name": "",
          "type": "uint256"
        }
      ],
      "name": "prizes",
      "outputs": [
        {
          "internalType": "string",
          "name": "",
          "type": "string"
        }
      ],
      "stateMutability": "view",
      "type": "function"
    },
    {
      "inputs": [
        {
          "internalType": "uint256",
          "name": "",
          "type": "uint256"
        }
      ],
      "name": "prizesWeight",
      "outputs": [
        {
          "internalType": "uint256",
          "name": "",
          "type": "uint256"
        }
      ],
      "stateMutability": "view",
      "type": "function"
    },
    {
      "inputs": [],
      "name": "renounceOwnership",
      "outputs": [],
      "stateMutability": "nonpayable",
      "type": "function"
    },
    {
      "inputs": [],
      "name": "spin",
      "outputs": [],
      "stateMutability": "payable",
      "type": "function"
    },
    {
      "inputs": [],
      "name": "spinFee",
      "outputs": [
        {
          "internalType": "uint256",
          "name": "",
          "type": "uint256"
        }
      ],
      "stateMutability": "view",
      "type": "function"
    },
    {
      "inputs": [],
      "name": "state",
      "outputs": [
        {
          "internalType": "enum Wheel.WheelState",
          "name": "",
          "type": "uint8"
        }
      ],
      "stateMutability": "view",
      "type": "function"
    },
    {
      "inputs": [
        {
          "internalType": "address",
          "name": "newOwner",
          "type": "address"
        }
      ],
      "name": "transferOwnership",
      "outputs": [],
      "stateMutability": "nonpayable",
      "type": "function"
    },
    {
      "stateMutability": "payable",
      "type": "receive"
    }
  ],
  "transactionHash": "0x77c245c27fd22aae8ea25409f811c19df337c2cc061deb38f0cfcb01d36a83dc",
  "args": [
    "10000000000000000",
    "1000000000000000"
  ],
  "numDeployments": 1,
  "solcInputHash": "d39b770bbd893919edb33db77eded4f4",
  "bytecode": "0x60e0604052604051806101400160405280600a60ff168152602001600660ff168152602001600860ff168152602001600660ff168152602001600360ff168152602001600260ff168152602001601e60ff168152602001601460ff168152602001600a60ff168152602001600560ff16815250600290600a620000849291906200045d565b506040518061014001604052806040518060400160405280600881526020017f465245455350494e00000000000000000000000000000000000000000000000081525081526020016040518060400160405280600281526020017f583200000000000000000000000000000000000000000000000000000000000081525081526020016040518060400160405280600481526020017f57494e350000000000000000000000000000000000000000000000000000000081525081526020016040518060400160405280600581526020017f57494e313000000000000000000000000000000000000000000000000000000081525081526020016040518060400160405280600581526020017f57494e323000000000000000000000000000000000000000000000000000000081525081526020016040518060400160405280600581526020017f57494e333000000000000000000000000000000000000000000000000000000081525081526020016040518060400160405280600581526020017f4c4f53453200000000000000000000000000000000000000000000000000000081525081526020016040518060400160405280600581526020017f4c4f53453300000000000000000000000000000000000000000000000000000081525081526020016040518060400160405280600581526020017f4c4f53453500000000000000000000000000000000000000000000000000000081525081526020016040518060400160405280600781526020017f4c4f5345414c4c00000000000000000000000000000000000000000000000000815250815250600390600a620002ef929190620004b4565b5060405162002cbf38038062002cbf8339818101604052810190620003159190620005e1565b62000335620003296200039160201b60201c565b6200039960201b60201c565b8160a081815250508060c08181525050600a8262000354919062000657565b608081815250506000600660006101000a81548160ff02191690836002811115620003845762000383620006a2565b5b0217905550505062000a28565b600033905090565b60008060009054906101000a900473ffffffffffffffffffffffffffffffffffffffff169050816000806101000a81548173ffffffffffffffffffffffffffffffffffffffff021916908373ffffffffffffffffffffffffffffffffffffffff1602179055508173ffffffffffffffffffffffffffffffffffffffff168173ffffffffffffffffffffffffffffffffffffffff167f8be0079c531659141344cd1fd0a4f28419497f9722a3daafe3b4186f6b6457e060405160405180910390a35050565b828054828255906000526020600020908101928215620004a1579160200282015b82811115620004a0578251829060ff169055916020019190600101906200047e565b5b509050620004b0919062000514565b5090565b82805482825590600052602060002090810192821562000501579160200282015b8281111562000500578251829081620004ef919062000941565b5091602001919060010190620004d5565b5b50905062000510919062000533565b5090565b5b808211156200052f57600081600090555060010162000515565b5090565b5b808211156200055757600081816200054d91906200055b565b5060010162000534565b5090565b50805462000569906200073a565b6000825580601f106200057d57506200059e565b601f0160209004906000526020600020908101906200059d919062000514565b5b50565b600080fd5b6000819050919050565b620005bb81620005a6565b8114620005c757600080fd5b50565b600081519050620005db81620005b0565b92915050565b60008060408385031215620005fb57620005fa620005a1565b5b60006200060b85828601620005ca565b92505060206200061e85828601620005ca565b9150509250929050565b7f4e487b7100000000000000000000000000000000000000000000000000000000600052601160045260246000fd5b60006200066482620005a6565b91506200067183620005a6565b92508282026200068181620005a6565b915082820484148315176200069b576200069a62000628565b5b5092915050565b7f4e487b7100000000000000000000000000000000000000000000000000000000600052602160045260246000fd5b600081519050919050565b7f4e487b7100000000000000000000000000000000000000000000000000000000600052604160045260246000fd5b7f4e487b7100000000000000000000000000000000000000000000000000000000600052602260045260246000fd5b600060028204905060018216806200075357607f821691505b6020821081036200076957620007686200070b565b5b50919050565b60008190508160005260206000209050919050565b60006020601f8301049050919050565b600082821b905092915050565b600060088302620007d37fffffffffffffffffffffffffffffffffffffffffffffffffffffffffffffffff8262000794565b620007df868362000794565b95508019841693508086168417925050509392505050565b6000819050919050565b6000620008226200081c6200081684620005a6565b620007f7565b620005a6565b9050919050565b6000819050919050565b6200083e8362000801565b620008566200084d8262000829565b848454620007a1565b825550505050565b600090565b6200086d6200085e565b6200087a81848462000833565b505050565b5b81811015620008a2576200089660008262000863565b60018101905062000880565b5050565b601f821115620008f157620008bb816200076f565b620008c68462000784565b81016020851015620008d6578190505b620008ee620008e58562000784565b8301826200087f565b50505b505050565b600082821c905092915050565b60006200091660001984600802620008f6565b1980831691505092915050565b600062000931838362000903565b9150826002028217905092915050565b6200094c82620006d1565b67ffffffffffffffff811115620009685762000967620006dc565b5b6200097482546200073a565b62000981828285620008a6565b600060209050601f831160018114620009b95760008415620009a4578287015190505b620009b0858262000923565b86555062000a20565b601f198416620009c9866200076f565b60005b82811015620009f357848901518255600182019150602085019450602081019050620009cc565b8683101562000a13578489015162000a0f601f89168262000903565b8355505b6001600288020188555050505b505050505050565b60805160a05160c0516121f762000ac8600039600081816106d401528181610c6401528181610d6b015281816112730152818161136401528181611405015281816114a601528181611547015281816115e80152818161161f015281816116a6015281816116dd01528181611764015261179b01526000818161054a0152818161098701526109ec01526000818161011101526108f601526121f76000f3fe6080604052600436106101025760003560e01c8063a3f67d6d11610095578063c5bb875811610064578063c5bb8758146103fc578063e97dcb6214610427578063eccb3a4f14610431578063f0acd7d51461046e578063f2fde38b14610478576101e5565b8063a3f67d6d1461032c578063b3f8531414610357578063b8d320e714610394578063c19d93fb146103d1576101e5565b806343d726d6116100d157806343d726d614610294578063715018a6146102ab57806379a39ebd146102c25780638da5cb5b14610301576101e5565b80630bb52153146101ea57806312065fe0146102155780631e83409a146102405780632c4106bd14610269576101e5565b366101e55761010f6104a1565b7f0000000000000000000000000000000000000000000000000000000000000000341061018e576001600660006101000a81548160ff0219169083600281111561015c5761015b611a0a565b5b02179055507f1e5253aad6ebf6efcc26cb12a5035158cd50d6ae3b77b649463a8160b61a778460405160405180910390a15b61019661051f565b73ffffffffffffffffffffffffffffffffffffffff167f5fe70cc46a141e2a4c211ab8433e3a08419d1d88f591374a31deb8306ec64906346040516101db9190611a52565b60405180910390a2005b600080fd5b3480156101f657600080fd5b506101ff610548565b60405161020c9190611a52565b60405180910390f35b34801561022157600080fd5b5061022a61056c565b6040516102379190611a52565b60405180910390f35b34801561024c57600080fd5b5061026760048036038101906102629190611ad0565b610574565b005b34801561027557600080fd5b5061027e6106d2565b60405161028b9190611a52565b60405180910390f35b3480156102a057600080fd5b506102a96106f6565b005b3480156102b757600080fd5b506102c0610847565b005b3480156102ce57600080fd5b506102e960048036038101906102e49190611b3b565b61085b565b6040516102f893929190611bf8565b60405180910390f35b34801561030d57600080fd5b5061031661051f565b6040516103239190611c3e565b60405180910390f35b34801561033857600080fd5b5061034161089f565b60405161034e9190611a52565b60405180910390f35b34801561036357600080fd5b5061037e60048036038101906103799190611b3b565b6108a5565b60405161038b9190611a52565b60405180910390f35b3480156103a057600080fd5b506103bb60048036038101906103b69190611c85565b6108bd565b6040516103c89190611a52565b60405180910390f35b3480156103dd57600080fd5b506103e66108e1565b6040516103f39190611cfa565b60405180910390f35b34801561040857600080fd5b506104116108f4565b60405161041e9190611a52565b60405180910390f35b61042f610918565b005b34801561043d57600080fd5b5061045860048036038101906104539190611c85565b610b49565b6040516104659190611da5565b60405180910390f35b610476610bf5565b005b34801561048457600080fd5b5061049f600480360381019061049a9190611b3b565b610e6c565b005b6104a9610eef565b73ffffffffffffffffffffffffffffffffffffffff166104c761051f565b73ffffffffffffffffffffffffffffffffffffffff161461051d576040517f08c379a000000000000000000000000000000000000000000000000000000000815260040161051490611e13565b60405180910390fd5b565b60008060009054906101000a900473ffffffffffffffffffffffffffffffffffffffff16905090565b7f000000000000000000000000000000000000000000000000000000000000000081565b600047905090565b6000600560003373ffffffffffffffffffffffffffffffffffffffff1673ffffffffffffffffffffffffffffffffffffffff16815260200190815260200160002054036105ed576040517fe480605400000000000000000000000000000000000000000000000000000000815260040160405180910390fd5b6000600560008373ffffffffffffffffffffffffffffffffffffffff1673ffffffffffffffffffffffffffffffffffffffff1681526020019081526020016000205490506000600560008473ffffffffffffffffffffffffffffffffffffffff1673ffffffffffffffffffffffffffffffffffffffff168152602001908152602001600020819055506106808282610ef7565b8173ffffffffffffffffffffffffffffffffffffffff167fd29315a9d9f96adb962391aa336437bb5e544dd67275358f007815fe72ed8e68826040516106c69190611a52565b60405180910390a25050565b7f000000000000000000000000000000000000000000000000000000000000000081565b6106fe6104a1565b6002600660006101000a81548160ff0219169083600281111561072457610723611a0a565b5b0217905550600047905060008103610763577fcdbfe65152d778d7e6efdccc213274babe1cfa71a97a956d66b8f182f61e158760405160405180910390a15b600081111561081857600061077661051f565b73ffffffffffffffffffffffffffffffffffffffff164760405161079990611e64565b60006040518083038185875af1925050503d80600081146107d6576040519150601f19603f3d011682016040523d82523d6000602084013e6107db565b606091505b5050905080610816576040517fec30b6c700000000000000000000000000000000000000000000000000000000815260040160405180910390fd5b505b7fdbee240f2e5f7faa6670aea3194497f78eac1126b2337daa10b2002f1371d20760405160405180910390a150565b61084f6104a1565b6108596000610f9f565b565b60046020528060005260406000206000915090508060000154908060010160009054906101000a900460ff16908060010160019054906101000a900460ff16905083565b60015481565b60056020528060005260406000206000915090505481565b600281815481106108cd57600080fd5b906000526020600020016000915090505481565b600660009054906101000a900460ff1681565b7f000000000000000000000000000000000000000000000000000000000000000081565b6001600281111561092c5761092b611a0a565b5b600660009054906101000a900460ff16600281111561094e5761094d611a0a565b5b14610985576040517f13c5be6300000000000000000000000000000000000000000000000000000000815260040160405180910390fd5b7f00000000000000000000000000000000000000000000000000000000000000003410156109df576040517f2f52d31a00000000000000000000000000000000000000000000000000000000815260040160405180910390fd5b60405180606001604052807f0000000000000000000000000000000000000000000000000000000000000000815260200160006002811115610a2457610a23611a0a565b5b815260200160066009811115610a3d57610a3c611a0a565b5b815250600460003373ffffffffffffffffffffffffffffffffffffffff1673ffffffffffffffffffffffffffffffffffffffff1681526020019081526020016000206000820151816000015560208201518160010160006101000a81548160ff02191690836002811115610ab457610ab3611a0a565b5b021790555060408201518160010160016101000a81548160ff02191690836009811115610ae457610ae3611a0a565b5b021790555090505060016000815480929190610aff90611ea8565b91905055503373ffffffffffffffffffffffffffffffffffffffff167fed92101e934a17fe95423af7575165121f66e910aac7d683c45d2a4209899e7860405160405180910390a2565b60038181548110610b5957600080fd5b906000526020600020016000915090508054610b7490611f1f565b80601f0160208091040260200160405190810160405280929190818152602001828054610ba090611f1f565b8015610bed5780601f10610bc257610100808354040283529160200191610bed565b820191906000526020600020905b815481529060010190602001808311610bd057829003601f168201915b505050505081565b60016002811115610c0957610c08611a0a565b5b600660009054906101000a900460ff166002811115610c2b57610c2a611a0a565b5b14610c62576040517f13c5be6300000000000000000000000000000000000000000000000000000000815260040160405180910390fd5b7f0000000000000000000000000000000000000000000000000000000000000000600460003373ffffffffffffffffffffffffffffffffffffffff1673ffffffffffffffffffffffffffffffffffffffff168152602001908152602001600020600001541015610cfe576040517f983a0bf400000000000000000000000000000000000000000000000000000000815260040160405180910390fd5b6001600460003373ffffffffffffffffffffffffffffffffffffffff1673ffffffffffffffffffffffffffffffffffffffff16815260200190815260200160002060010160006101000a81548160ff02191690836002811115610d6457610d63611a0a565b5b02179055507f0000000000000000000000000000000000000000000000000000000000000000600460003373ffffffffffffffffffffffffffffffffffffffff1673ffffffffffffffffffffffffffffffffffffffff1681526020019081526020016000206000016000828254610ddb9190611f50565b925050819055506000610e4b6003805490506002805480602002602001604051908101604052809291908181526020018280548015610e3957602002820191906000526020600020905b815481526020019060010190808311610e25575b5050505050610e46611063565b611098565b9050610e6933826009811115610e6457610e63611a0a565b5b611177565b50565b610e746104a1565b600073ffffffffffffffffffffffffffffffffffffffff168173ffffffffffffffffffffffffffffffffffffffff1603610ee3576040517f08c379a0000000000000000000000000000000000000000000000000000000008152600401610eda90611ff6565b60405180910390fd5b610eec81610f9f565b50565b600033905090565b60008273ffffffffffffffffffffffffffffffffffffffff1682604051610f1d90611e64565b60006040518083038185875af1925050503d8060008114610f5a576040519150601f19603f3d011682016040523d82523d6000602084013e610f5f565b606091505b5050905080610f9a576040517fec30b6c700000000000000000000000000000000000000000000000000000000815260040160405180910390fd5b505050565b60008060009054906101000a900473ffffffffffffffffffffffffffffffffffffffff169050816000806101000a81548173ffffffffffffffffffffffffffffffffffffffff021916908373ffffffffffffffffffffffffffffffffffffffff1602179055508173ffffffffffffffffffffffffffffffffffffffff168173ffffffffffffffffffffffffffffffffffffffff167f8be0079c531659141344cd1fd0a4f28419497f9722a3daafe3b4186f6b6457e060405160405180910390a35050565b600044423360405160200161107a9392919061207f565b6040516020818303038152906040528051906020012060001c905090565b6000806000905060005b858110156110e5578481815181106110bd576110bc6120bc565b5b6020026020010151826110d091906120eb565b915080806110dd90611ea8565b9150506110a2565b50600081846110f4919061214e565b905060005b8681101561116957858181518110611114576111136120bc565b5b602002602001015182101561112e57809350505050611170565b858181518110611141576111406120bc565b5b6020026020010151826111549190611f50565b9150808061116190611ea8565b9150506110f9565b5080925050505b9392505050565b6000600460008473ffffffffffffffffffffffffffffffffffffffff1673ffffffffffffffffffffffffffffffffffffffff168152602001908152602001600020604051806060016040529081600082015481526020016001820160009054906101000a900460ff1660028111156111f2576111f1611a0a565b5b600281111561120457611203611a0a565b5b81526020016001820160019054906101000a900460ff16600981111561122d5761122c611a0a565b5b600981111561123f5761123e611a0a565b5b8152505090506000600981111561125957611258611a0a565b5b82600981111561126c5761126b611a0a565b5b036112af577f0000000000000000000000000000000000000000000000000000000000000000816000018181516112a391906120eb565b91508181525050611832565b600160098111156112c3576112c2611a0a565b5b8260098111156112d6576112d5611a0a565b5b0361133457600281600001516112ec919061217f565b600560008573ffffffffffffffffffffffffffffffffffffffff1673ffffffffffffffffffffffffffffffffffffffff16815260200190815260200160002081905550611831565b6002600981111561134857611347611a0a565b5b82600981111561135b5761135a611a0a565b5b036113d55760057f000000000000000000000000000000000000000000000000000000000000000061138d919061217f565b600560008573ffffffffffffffffffffffffffffffffffffffff1673ffffffffffffffffffffffffffffffffffffffff16815260200190815260200160002081905550611830565b600360098111156113e9576113e8611a0a565b5b8260098111156113fc576113fb611a0a565b5b0361147657600a7f000000000000000000000000000000000000000000000000000000000000000061142e919061217f565b600560008573ffffffffffffffffffffffffffffffffffffffff1673ffffffffffffffffffffffffffffffffffffffff1681526020019081526020016000208190555061182f565b6004600981111561148a57611489611a0a565b5b82600981111561149d5761149c611a0a565b5b036115175760147f00000000000000000000000000000000000000000000000000000000000000006114cf919061217f565b600560008573ffffffffffffffffffffffffffffffffffffffff1673ffffffffffffffffffffffffffffffffffffffff1681526020019081526020016000208190555061182e565b6005600981111561152b5761152a611a0a565b5b82600981111561153e5761153d611a0a565b5b036115b857601e7f0000000000000000000000000000000000000000000000000000000000000000611570919061217f565b600560008573ffffffffffffffffffffffffffffffffffffffff1673ffffffffffffffffffffffffffffffffffffffff1681526020019081526020016000208190555061182d565b600660098111156115cc576115cb611a0a565b5b8260098111156115df576115de611a0a565b5b036116765760027f0000000000000000000000000000000000000000000000000000000000000000611611919061217f565b8160000151106116655760027f0000000000000000000000000000000000000000000000000000000000000000611648919061217f565b816000018181516116599190611f50565b91508181525050611671565b60008160000181815250505b61182c565b6007600981111561168a57611689611a0a565b5b82600981111561169d5761169c611a0a565b5b036117345760037f00000000000000000000000000000000000000000000000000000000000000006116cf919061217f565b8160000151106117235760037f0000000000000000000000000000000000000000000000000000000000000000611706919061217f565b816000018181516117179190611f50565b9150818152505061172f565b60008160000181815250505b61182b565b6008600981111561174857611747611a0a565b5b82600981111561175b5761175a611a0a565b5b036117f25760057f000000000000000000000000000000000000000000000000000000000000000061178d919061217f565b8160000151106117e15760057f00000000000000000000000000000000000000000000000000000000000000006117c4919061217f565b816000018181516117d59190611f50565b915081815250506117ed565b60008160000181815250505b61182a565b60098081111561180557611804611a0a565b5b82600981111561181857611817611a0a565b5b036118295760008160000181815250505b5b5b5b5b5b5b5b5b5b60008160000151036118705760028160200190600281111561185757611856611a0a565b5b9081600281111561186b5761186a611a0a565b5b815250505b818160400190600981111561188857611887611a0a565b5b9081600981111561189c5761189b611a0a565b5b81525050600160028111156118b4576118b3611a0a565b5b816020015160028111156118cb576118ca611a0a565b5b03611902576000816020019060028111156118e9576118e8611a0a565b5b908160028111156118fd576118fc611a0a565b5b815250505b80600460008573ffffffffffffffffffffffffffffffffffffffff1673ffffffffffffffffffffffffffffffffffffffff1681526020019081526020016000206000820151816000015560208201518160010160006101000a81548160ff0219169083600281111561197757611976611a0a565b5b021790555060408201518160010160016101000a81548160ff021916908360098111156119a7576119a6611a0a565b5b02179055509050508160098111156119c2576119c1611a0a565b5b8373ffffffffffffffffffffffffffffffffffffffff167f8c2c4fe47fefef099370fad06ef375fefe2c9abf52c1d8708f2277a6826c707d60405160405180910390a3505050565b7f4e487b7100000000000000000000000000000000000000000000000000000000600052602160045260246000fd5b6000819050919050565b611a4c81611a39565b82525050565b6000602082019050611a676000830184611a43565b92915050565b600080fd5b600073ffffffffffffffffffffffffffffffffffffffff82169050919050565b6000611a9d82611a72565b9050919050565b611aad81611a92565b8114611ab857600080fd5b50565b600081359050611aca81611aa4565b92915050565b600060208284031215611ae657611ae5611a6d565b5b6000611af484828501611abb565b91505092915050565b6000611b0882611a72565b9050919050565b611b1881611afd565b8114611b2357600080fd5b50565b600081359050611b3581611b0f565b92915050565b600060208284031215611b5157611b50611a6d565b5b6000611b5f84828501611b26565b91505092915050565b60038110611b7957611b78611a0a565b5b50565b6000819050611b8a82611b68565b919050565b6000611b9a82611b7c565b9050919050565b611baa81611b8f565b82525050565b600a8110611bc157611bc0611a0a565b5b50565b6000819050611bd282611bb0565b919050565b6000611be282611bc4565b9050919050565b611bf281611bd7565b82525050565b6000606082019050611c0d6000830186611a43565b611c1a6020830185611ba1565b611c276040830184611be9565b949350505050565b611c3881611afd565b82525050565b6000602082019050611c536000830184611c2f565b92915050565b611c6281611a39565b8114611c6d57600080fd5b50565b600081359050611c7f81611c59565b92915050565b600060208284031215611c9b57611c9a611a6d565b5b6000611ca984828501611c70565b91505092915050565b60038110611cc357611cc2611a0a565b5b50565b6000819050611cd482611cb2565b919050565b6000611ce482611cc6565b9050919050565b611cf481611cd9565b82525050565b6000602082019050611d0f6000830184611ceb565b92915050565b600081519050919050565b600082825260208201905092915050565b60005b83811015611d4f578082015181840152602081019050611d34565b60008484015250505050565b6000601f19601f8301169050919050565b6000611d7782611d15565b611d818185611d20565b9350611d91818560208601611d31565b611d9a81611d5b565b840191505092915050565b60006020820190508181036000830152611dbf8184611d6c565b905092915050565b7f4f776e61626c653a2063616c6c6572206973206e6f7420746865206f776e6572600082015250565b6000611dfd602083611d20565b9150611e0882611dc7565b602082019050919050565b60006020820190508181036000830152611e2c81611df0565b9050919050565b600081905092915050565b50565b6000611e4e600083611e33565b9150611e5982611e3e565b600082019050919050565b6000611e6f82611e41565b9150819050919050565b7f4e487b7100000000000000000000000000000000000000000000000000000000600052601160045260246000fd5b6000611eb382611a39565b91507fffffffffffffffffffffffffffffffffffffffffffffffffffffffffffffffff8203611ee557611ee4611e79565b5b600182019050919050565b7f4e487b7100000000000000000000000000000000000000000000000000000000600052602260045260246000fd5b60006002820490506001821680611f3757607f821691505b602082108103611f4a57611f49611ef0565b5b50919050565b6000611f5b82611a39565b9150611f6683611a39565b9250828203905081811115611f7e57611f7d611e79565b5b92915050565b7f4f776e61626c653a206e6577206f776e657220697320746865207a65726f206160008201527f6464726573730000000000000000000000000000000000000000000000000000602082015250565b6000611fe0602683611d20565b9150611feb82611f84565b604082019050919050565b6000602082019050818103600083015261200f81611fd3565b9050919050565b6000819050919050565b61203161202c82611a39565b612016565b82525050565b60008160601b9050919050565b600061204f82612037565b9050919050565b600061206182612044565b9050919050565b61207961207482611afd565b612056565b82525050565b600061208b8286612020565b60208201915061209b8285612020565b6020820191506120ab8284612068565b601482019150819050949350505050565b7f4e487b7100000000000000000000000000000000000000000000000000000000600052603260045260246000fd5b60006120f682611a39565b915061210183611a39565b925082820190508082111561211957612118611e79565b5b92915050565b7f4e487b7100000000000000000000000000000000000000000000000000000000600052601260045260246000fd5b600061215982611a39565b915061216483611a39565b9250826121745761217361211f565b5b828206905092915050565b600061218a82611a39565b915061219583611a39565b92508282026121a381611a39565b915082820484148315176121ba576121b9611e79565b5b509291505056fea2646970667358221220bb20d970e2bba819adeabc36699e36566b1655f153c27cff476baf5a3306081e64736f6c63430008110033",
  "devdoc": {
    "author": "0xL",
    "details": "This contract implements Chainlink VRF to pick the wheel prize position",
    "kind": "dev",
    "methods": {
      "close()": {
        "details": "Updates wheel state to CLOSED and withdraw all funds to owner"
      },
      "enter()": {
        "details": "Set player in mapping and updates players counter"
      },
      "owner()": {
        "details": "Returns the address of the current owner."
      },
      "renounceOwnership()": {
        "details": "Leaves the contract without owner. It will not be possible to call `onlyOwner` functions anymore. Can only be called by the current owner. NOTE: Renouncing ownership will leave the contract without an owner, thereby removing any functionality that is only available to the owner."
      },
      "spin()": {
        "details": "Reduce players balance/state"
      },
      "transferOwnership(address)": {
        "details": "Transfers ownership of the contract to a new account (`newOwner`). Can only be called by the current owner."
      }
    },
    "title": "Wheel of fortune contract",
    "version": 1
  },
  "userdoc": {
    "kind": "user",
    "methods": {
      "close()": {
        "notice": "Owner closes the wheel"
      },
      "enter()": {
        "notice": "Player enters the wheel"
      },
      "spin()": {
        "notice": "Player spins the wheel"
      }
    },
    "notice": "This manages a decentralized wheel of fortune game",
    "version": 1
  },
  "storageLayout": {
    "storage": [
      {
        "astId": 7,
        "contract": "contracts/Wheel.sol:Wheel",
        "label": "_owner",
        "offset": 0,
        "slot": "0",
        "type": "t_address"
      },
      {
        "astId": 279,
        "contract": "contracts/Wheel.sol:Wheel",
        "label": "playersCount",
        "offset": 0,
        "slot": "1",
        "type": "t_uint256"
      },
      {
        "astId": 293,
        "contract": "contracts/Wheel.sol:Wheel",
        "label": "prizesWeight",
        "offset": 0,
        "slot": "2",
        "type": "t_array(t_uint256)dyn_storage"
      },
      {
        "astId": 307,
        "contract": "contracts/Wheel.sol:Wheel",
        "label": "prizes",
        "offset": 0,
        "slot": "3",
        "type": "t_array(t_string_storage)dyn_storage"
      },
      {
        "astId": 312,
        "contract": "contracts/Wheel.sol:Wheel",
        "label": "addressToPlayer",
        "offset": 0,
        "slot": "4",
        "type": "t_mapping(t_address,t_struct(Player)328_storage)"
      },
      {
        "astId": 316,
        "contract": "contracts/Wheel.sol:Wheel",
        "label": "addressToPrize",
        "offset": 0,
        "slot": "5",
        "type": "t_mapping(t_address,t_uint256)"
      },
      {
        "astId": 319,
        "contract": "contracts/Wheel.sol:Wheel",
        "label": "state",
        "offset": 0,
        "slot": "6",
        "type": "t_enum(WheelState)256"
      }
    ],
    "types": {
      "t_address": {
        "encoding": "inplace",
        "label": "address",
        "numberOfBytes": "20"
      },
      "t_array(t_string_storage)dyn_storage": {
        "base": "t_string_storage",
        "encoding": "dynamic_array",
        "label": "string[]",
        "numberOfBytes": "32"
      },
      "t_array(t_uint256)dyn_storage": {
        "base": "t_uint256",
        "encoding": "dynamic_array",
        "label": "uint256[]",
        "numberOfBytes": "32"
      },
      "t_enum(PlayerState)260": {
        "encoding": "inplace",
        "label": "enum Wheel.PlayerState",
        "numberOfBytes": "1"
      },
      "t_enum(WheelPrize)271": {
        "encoding": "inplace",
        "label": "enum Wheel.WheelPrize",
        "numberOfBytes": "1"
      },
      "t_enum(WheelState)256": {
        "encoding": "inplace",
        "label": "enum Wheel.WheelState",
        "numberOfBytes": "1"
      },
      "t_mapping(t_address,t_struct(Player)328_storage)": {
        "encoding": "mapping",
        "key": "t_address",
        "label": "mapping(address => struct Wheel.Player)",
        "numberOfBytes": "32",
        "value": "t_struct(Player)328_storage"
      },
      "t_mapping(t_address,t_uint256)": {
        "encoding": "mapping",
        "key": "t_address",
        "label": "mapping(address => uint256)",
        "numberOfBytes": "32",
        "value": "t_uint256"
      },
      "t_string_storage": {
        "encoding": "bytes",
        "label": "string",
        "numberOfBytes": "32"
      },
      "t_struct(Player)328_storage": {
        "encoding": "inplace",
        "label": "struct Wheel.Player",
        "members": [
          {
            "astId": 321,
            "contract": "contracts/Wheel.sol:Wheel",
            "label": "balance",
            "offset": 0,
            "slot": "0",
            "type": "t_uint256"
          },
          {
            "astId": 324,
            "contract": "contracts/Wheel.sol:Wheel",
            "label": "state",
            "offset": 0,
            "slot": "1",
            "type": "t_enum(PlayerState)260"
          },
          {
            "astId": 327,
            "contract": "contracts/Wheel.sol:Wheel",
            "label": "lastPrize",
            "offset": 1,
            "slot": "1",
            "type": "t_enum(WheelPrize)271"
          }
        ],
        "numberOfBytes": "64"
      },
      "t_uint256": {
        "encoding": "inplace",
        "label": "uint256",
        "numberOfBytes": "32"
      }
    }
  }
}